:200000000C9434000C943E000C9400000C943E000C943E000C943E000C943E000C943E0038
:200020000C943E000C943E000C943E000C943E000C943E000C943E000C943E000C943E00D0
:200040000C943E000C943E000C943E000C943E000C943E000C943E000C943E000C943E00B0
:200060000C943E000C943E0011241FBECFEFD8E0DEBFCDBF0E9440000C9468000C94000089
:200080000F920F920DB60E9200040F9288909E9300A285B90E01034C194000408000100066
:2000A000809500C000001C00800000910C0000900A00010000910A0080000A0080008080F2
:2000C000000000001000842000900A0000907A00800080837A008091C00082608093C00045
:2000E0001092C5008FEC8093C4008091C20086608093C2008091C10080618093C100809121
:20010000C10088608093C10080917C00807F80937C0080917C0080937C0080917A008064BC
:2001200080937A0080917A0086FDFCCF80917800909179004AE0B8010E94BA00F8018191EC
:20014000811111C08091C00085FFFCCF8AE08093C600FFEF29E688E1F15020408040E1F73A
:2001600000C00000D1CF9091C00095FFFCCF8093C600E5CFBB274A3031F4992322F4BDE260
:20018000909581959F4F0C94C600BB27FB015527AA27880F991FAA1FA41710F0A41B8395FB
:2001A0005051B9F7A05DAA3308F0A95DA193009779F7B111B1931192CB010C94DF00DC010A
:2001C000FC01672F71917723E1F7329704C07C916D9370836291AE17BF07C8F30895F89429
:0201E000FFCF4F
:00000001FF
